:020000040800F2
:10800000C81100203D82000827BB0008E1B6000827
:1080100025BB000825A800085FC300080000000079
:10802000000000000000000000000000B9C10008CE
:1080300027A800080000000029BB0008BBC10008F9
:1080400057820008578200085782000857820008AC
:10805000578200085782000857820008578200089C
:10806000578200085782000857820008578200088C
:10807000578200085782000857820008578200087C
:10808000578200085782000857820008578200086C
:10809000578200085782000857820008578200085C
:1080A000578200085782000857820008578200084C
:1080B000578200085782000857820008578200083C
:1080C000578200085782000857820008578200082C
:1080D000578200081DC30008578200085782000815
:1080E00057820008578200085782000800F002F803
:1080F00000F094F80AA090E8000C82448344AAF1AE
:108100000107DA4501D100F089F8AFF2090EBAE8AB
:108110000F0013F0010F18BFFB1A43F001031847BB
:108120000C6200002C620000103A24BF78C878C1AD
:10813000FAD8520724BF30C830C144BF04680C606D
:10814000704700000023002400250026103A28BFB5
:1081500078C1FBD8520728BF30C148BF0B607047B9
:108160006E2900F0F985702900F05987662906F01C
:108170004D80652906F04A80672906F0478061290D
:1081800006F0468003681B0A28BF41F08001692978
:1081900000F02481642900F02181752900F01E81FE
:1081A0006F2900F0E686782900F02587E92900F09C
:1081B0008186E42900F07E86F52900F07B86EF2990
:1081C00000F0E386F82900F024870368DB0928BF64
:1081D00041F08001632900F00286732900F00786D0
:1081E000E32901F01784F32901F01C840020704773
:1081F0001FB59DE8030000F0E7FC01F007F804005C
:108200000020002105F0D6FF401C60600020002106
:1082100005F0E6FFE0601FBD10B510BD01F006FEE1
:108220001146FFF7E5FF05F0BDFC01F0D7FE03B4F2
:10823000FFF7F2FF03BC01F007FF00000948804789
:1082400009480047FEE7FEE7FEE7FEE7FEE7FEE738
:10825000FEE7FEE7FEE7FEE704480549054A064B50
:10826000704700001DC20008ED800008C80B002008
:10827000C8110020C80D0020C80D002070B50646AA
:1082800000F082FC056806F10B0020F00704B44200
:108290009CBF002070BD2B466A68BAB11068A0422E
:1082A00010D304F1080188423CBF5068586007D3DE
:1082B0005168101941601168091B01605860146011
:1082C000101D70BD13465268002AE7D1214628468A
:1082D00000F066FC0028DED170BD70B50446051FB5
:1082E00000F052FC0068002C14BF446870BD002CE4
:1082F00018BFAC423CBF20466468F8D301680A1836
:10830000AA4218BF456003D12A680546114401609E
:1083100028684119A1421CBF6C6070BD616869602A
:1083200021680844286070BD7CB51D4616460C00C7
:10833000009001D02044401E074B7B442A466946EA
:108340000190304600F021FD05461CB10020694631
:1083500000F02EFD28467CBD7D0A00000FB41CB540
:10836000084B06AA7B4469460090059800F00DFD75
:1083700004460020694600F01BFD20461CBC5DF849
:1083800014FB0000490A000070B50C460546012A9E
:1083900005D02878800600D5EA69002302E0012391
:1083A00005E05B1C934202D2E05C0028F9D1A86989
:1083B000E618C01AA861286A18442862284600F006
:1083C00039FC04E0D5E9012114F8010B9047B442CF
:1083D000F8D3284600F044FC70BD00002DE9F041C0
:1083E0000646002410687529314616A510D000F005
:1083F00048FC002802DA404213A507E031688A07EA
:1084000001D512A502E0490704D511A5012401E018
:1084100000F040FC00210A2206F1240709E0B0FB2D
:10842000F2FCB0FBF2F302FB1C003030785418462B
:10843000491C0028F3D123462A463046BDE8F041C6
:1084400000F031BC000000002D0000002B000000F7
:10845000200000002DE9F05F894604464FF0000A35
:10846000DFF874B1FB44C0F820A02046E1688847DB
:10847000002874D0252806D0D4E901219047206A2D
:10848000401C2062F1E700265F462046E1688847ED
:108490002028054607DB312D05D2781910F8200C6D
:1084A00008B10643F1E7B00701D526F00406C4F889
:1084B0001CA00027C4F818A02A2D09D0284603F0D4
:1084C00073FF38B304EB8708303DC8F8185019E043
:1084D00059F8041B204604EB87029161E168884744
:1084E000012F054618D1E069002820DA26F0200681
:1084F0001DE0D8F8180000EB800005EB4000303894
:10850000C8F818002046E1688847054603F04CFF8C
:108510000028EED1012F0AD02E2D08D12046E16887
:1085200088477F1C0546022F46F02006C4DBA06961
:10853000002803DA404246F00106A061F00701D0AE
:1085400026F010066C2D0BD0682D09D04C2D39D09B
:108550006A2D35D0742D35D07A2D33D016E038E021
:10856000E1682F4620468847B842054609D16C2F5E
:1085700026D04FF48060E1680643204688470546D0
:1085800004E06C2F1AD04FF4807006430DB3A5F1B0
:108590004100192802D8203546F400664A4629468B
:1085A000204626604E46FFF7DBFD80B101280BD048
:1085B000F61D26F0070000F1080956E74020E4E721
:1085C0008020D8E70020D6E706F104094DE72846C9
:1085D00052E7206ABDE8F09FC45D00000FB400B50B
:1085E0008DB010A9099000910B904FF0FF300A90C8
:1085F00000200C90064878440690064878446A4665
:1086000007900F9909A800F029FD0DB05DF814FB43
:10861000830A00009B0A00002DE9FF5F1D464FF012
:10862000FF3B91464FF000085F46D5E90146A96936
:1086300001987F1C8847296A824688470028F6D11E
:10864000BAF1FF3F0CD0002E24F4C06419DD60069F
:1086500014D5BAF12B0F09D0BAF12D0F0ED103E0CA
:10866000584604B0BDE8F09F44F48064A9690198BD
:108670007F1C8847761E8246002E02DDBAF1300F3D
:1086800003D0B9F1000F26D032E0A969761E019817
:108690007F1C44F400748847002E824605DDBAF141
:1086A000780F06D0BAF1580F03D0B9F1000F10D0EF
:1086B0001EE0B9F1000F02D0B9F1100F18D1A9696D
:1086C000761E01987F1C24F400748847824610208F
:1086D00002E0082000E00A20814609E0A96908FBC1
:1086E0000908761E01987F1C44F40074884782466E
:1086F000002E05DD4946504600F09CFC0028EDDACE
:10870000E96901988847A00502D46FF00100A8E745
:10871000E00725D1600613D5600502D5C8F1000039
:1087200000E0404629680A1D2A600968220501D533
:10873000087015E0220701D5088011E008600FE0FD
:108740002868011D29600068210502D580F8008095
:1087500006E0210702D5A0F8008001E0C0F8008003
:1087600038467EE72DE9FF5F4FF000089946144632
:1087700046469169D2E901A7DDF838B001988847EB
:10878000054659EA0B0005D009E0A1690198761C5D
:1087900088470546216A284688470028F5D1681C85
:1087A00003D05FEACA7005D015E04FF0FF3004B087
:1087B000BDE8F09F2068011D2160D0F800800AE02C
:1087C0005FEACA7001D108F8015BA169761C0198C3
:1087D0007F1E88470546002F1ADD681C18D0B9F1A6
:1087E000000F0DD0E81705EBD060421120F01F00FC
:1087F00059F822102A1A012090400142E0D107E0E6
:10880000BBF1000FDCD12846216A88470028D7D069
:10881000E16901988847BBF1000F07D1002E05DD03
:108820005FEACA7002D1002188F80010A068B8423F
:1088300003DDBBF1000F03D017B16FF00100B6E705
:108840003046B4E72DE9F04791460F46804604468E
:10885000002614F8015B2DB100F08EF90068405D30
:10886000C007F6D12B2D02D02D2D18D0641E4A46FC
:108870003946204600F022FC27B13968A14201D1D7
:10888000C7F800804FF0020471050BD54042002864
:1088900003DD00F07DF90460A007BDE8F08746F431
:1088A0008066E4E70028F8DA00F072F904606FF0FF
:1088B0000040F2E7014A00F051BC00003000002007
:1088C000401ECAB210F8011F8A4202D00029F9D115
:1088D0000020704730B505460B462A4613F8014B79
:1088E00012F8010B08B1A042F8D01CB1002802D048
:1088F0006D1CF1E7284630BD40EA0103024630B561
:108900009B0710D14FF0013400E008C208C91D1BBD
:108910009D4315EAC41FF8D013F0FF0102F8011BB4
:108920000DD01B0AF8E711F8013B002B02F8013BC0
:1089300005D011F8013B002B02F8013BF3D130BD0B
:1089400010B5431C02E010F8011B71B18107FAD188
:108950004FF0013202C88C1A8C4314EAC211F9D0CC
:10896000C01A0A0603D0C01E10BDC01A10BD0A04EA
:1089700001D0801E10BD0902FCD0401E10BD032A8C
:1089800040F2308010F0030C00F0158011F8013B2C
:10899000BCF1020F624498BF11F801CB00F8013B13
:1089A00038BF11F8013BA2F1040298BF00F801CBD7
:1089B00038BF00F8013B11F0030300F0F183083ADF
:1089C000C0F0088051F8043B083A51F804CBA0E805
:1089D0000810F5E7121D5CBF51F8043B40F8043B5A
:1089E000AFF30080D20724BF11F8013B11F801CB8F
:1089F00048BF11F8012B24BF00F8013B00F801CB60
:108A000048BF00F8012B70474FF000020429C0F066
:108A1000128010F0030C00F01B80CCF1040CBCF1B0
:108A2000020F18BF00F8012BA8BF20F8022BA1EB02
:108A30000C0100F00DB85FEAC17C24BF00F8012BE7
:108A400000F8012B48BF00F8012B70474FF00002DF
:108A500000B5134694469646203922BFA0E80C5034
:108A6000A0E80C50B1F12001BFF4F7AF090728BF0F
:108A7000A0E80C5048BF0CC05DF804EB890028BF8B
:108A800040F8042B08BF704748BF20F8022B11F0B4
:108A9000804F18BF00F8012B704710B5044610F046
:108AA000030F08BF11F0030F40F015804FF0013E97
:108AB000121FC0F20E8051F8043BA3EB0E0C2CEAFF
:108AC000030C1CEACE1C08BF40F8043BF0D0A1F117
:108AD000040102F10402521E08DB11F8013B002BD5
:108AE00000F8013BF7D11146FFF78EFF204610BD7D
:108AF0004FF0013C50F8042B51F8043B9A4221D12D
:108B0000A2EB0C03934313EACC1317D150F8042BB8
:108B100051F8043B9A4215D1A2EB0C03934313EA9C
:108B2000CC130BD150F8042B51F8043B9A4209D1D5
:108B3000A2EB0C03934313EACC13DBD04FF00000FD
:108B4000704700BFD01A01BAB1FA81F101F01801E3
:108B500022FA01F0CB40C1F12001DBB2C0B2C01A51
:108B60002CFA01F3D11A914311EAC311E6D17047EF
:108B7000704770477047000010B500F047FB001DBC
:108B800010BD00BF3156000000487047700B002038
:108B900000487047680B0020704770477047704767
:108BA00038B504460A4600206946AFF30080002825
:108BB00008BF38BD02460099204600F02BFB01207B
:108BC00038BD012001F00CB9F8B5AFF300800546BF
:108BD00000200C46102000BF0646A819A0420DD95F
:108BE000324669460020AFF30080070008BF01F05D
:108BF000F7F80098A04218BF0546C419FFF7C4FF54
:108C000005600746F01D20F007004619284600F0D1
:108C10000AF8B44208BFF8BDA21B31463868BDE867
:108C2000F84000F0F7BA00210160C0E90110704778
:108C30001020704770B5044685690068C10601D5EB
:108C4000302600E02026C00707D070BDD4E90121FE
:108C500030469047206A401C20626D1EF6D570BDDC
:108C600070B5044685690078C00707D170BDD4E9A6
:108C7000012120209047206A401C20626D1EF6D5FD
:108C800070BD09684A0501D540B27047C905FCD5D9
:108C900000B2704709684A0501D5C0B27047C905DE
:108CA000FCD580B270472DE9F0470D4699469246B3
:108CB000044600F124080168880604D5E06921F023
:108CC0001001216000E00120A84201DD471B00E007
:108CD0000027A1697A1902EB0900081AA06120781F
:108CE000C00602D42046FFF7A5FF002608E0D4E91D
:108CF00001211AF806009047206A401C761C206269
:108D00004E45F4DB2078C0060AD52046FFF792FFD7
:108D100006E0D4E9012130209047206A401C2062FF
:108D2000381EA7F10107F4DC07E0D4E9012118F8A7
:108D300005009047206A401C2062281EA5F101050D
:108D4000F3DC2046FFF78CFF2078000602D50220D6
:108D5000BDE8F0870120FBE711680268006A53054F
:108D600001D508700AE0D30501D5088006E0130696
:108D700003D5C217C1E9000200E008600120704776
:108D800001694A1C02610878704700B58FB0CDE9CF
:108D900001310021059105497944CDE903101146BF
:108DA0006846FFF757FB0FB000BD0000E5FFFFFF6F
:108DB0000A6802F8010B0A607047D1E900239A4261
:108DC00002D2531C0B601070704710B5436913B189
:108DD000AFF3008001E0FFF7D7FA012010BD127851
:108DE00000F124010A7000224A700122EDE71168A7
:108DF0004FF0FF32E9E700002DE9FF5F15468A4694
:108E00000446DFF8AC80F8440027D8E900103E465D
:108E1000CDE9001010E03AF816106A4602A800F0FA
:108E2000BFFF411C07D02178890603D5E2693918B4
:108E300091420DD80744761C2078800602D5E0695F
:108E4000B84205DDAE42E6DB3AF816000028E2D172
:108E5000A069C01BA0612046FFF7ECFED8E9001016
:108E6000CDE90010002017E03AF818106A4602A871
:108E700000F096FFB0F1FF3F81460BD000250DF1C9
:108E8000080B05E0D4E901211BF8050090476D1C93
:108E90004D45F7D308F10100B0428046E4DB206A7B
:108EA000384420622046FFF7DBFEBDE8FF9F00004C
:108EB000365400002DE9F0418046D21D22F0070211
:108EC0000025D2E90002F52915A614D0011E72F181
:108ED000000106DA0023D0EB030063EB020211A6C7
:108EE00008E0D8F800108B0701D50FA602E049076B
:108EF00001D50EA601251146002408F1240704E03F
:108F000000F0A2F930323A55641C50EA0102F7D160
:108F10002B46324621464046BDE8F041FFF7C3BE2E
:108F2000000000002D0000002B00000020000000C9
:108F300030B4002100F1240408E002F00705D20853
:108F4000303542EA4372DB086554491C52EA030596
:108F5000F3D10468002310A2250707D5A40600D486
:108F600021B1C46901230DA2641EC46130BCFFF7A6
:108F70009ABE10B5044621461068FFF78BFE0246E4
:108F80002046BDE810400023D2E7D21D22F00701A1
:108F9000D1E90023CCE70000000000003000000011
:108FA000F0B40D460188090502D5214C7C4402E04D
:108FB0001F4C7C440E34002100F1240608E002F02E
:108FC0000F071209E75D42EA03721B097754491C37
:108FD00052EA0307F3D102780023120704D5702D5B
:108FE00006D009B1022311342246F0BCFFF75BBE64
:108FF00001231034F8E770B504460D462146106889
:10900000FFF748FE024629462046BDE8704000238F
:10901000C6E7D21D22F00703D3E90023C0E70368A7
:10902000126843F0200303600823C3610023B7E7FD
:10903000985200003A2800D2303820F02002412A0D
:1090400001D3A2F13700884201D34FF0FF307047BF
:10905000026811441378016018467047D1600549D1
:10906000794451610449794411620021116111462A
:1090700000F0DCBCEDFFFFFF69020000426842B176
:10908000016811F8013B23B1521EC0E900121846D5
:1090900070470121C160881E704742685AB1C36899
:1090A000016843B983688B4205D0491E521CC0E950
:1090B0000012002070474FF0FF3070472DE9F05F3D
:1090C000824615468B4600270AF10104B94600780E
:1090D000302801D09DB113E014F8010B0127782846
:1090E00003D0582801D045B10AE00DB1102D07D1A9
:1090F000002714F8010B102502E0082500E00A25DE
:109100000026B0460EE005FB080005FB06F101272E
:109110001FFA80F801EB1046B6F5803F00D3B94640
:1091200014F8010B2946FFF785FF0028EBDABBF1A5
:10913000000F05D00FB1641E00E05446CBF800408C
:10914000B9F1000F06D0FFF723FD02210160C81E10
:10915000BDE8F09F48EA0640FAE700002DE9F0413B
:1091600015460E46040002D12C6804B90BA4204613
:1091700000F04DFE0444207870B127463146384651
:1091800000F035FE0444207810B1002004F8010BF3
:1091900038462C60BDE8F0810027F9E700000000A8
:1091A00010B5203AC0F00B80B1E81850203AA0E882
:1091B0001850B1E81850A0E81850BFF4F5AF5FEAB6
:1091C000027C24BFB1E81850A0E8185044BF18C969
:1091D00018C0BDE810405FEA827C24BF51F8043B10
:1091E00040F8043B08BF7047D20728BF31F8023B64
:1091F00048BF11F8012B28BF20F8023B48BF00F8F8
:10920000012B704700487047680B002000487047EA
:10921000880B0020034640688C46002818BF88420F
:109220003CBF03464068F8D318681844884207D00A
:109230000CF1030020F00700001D411A521A0146EC
:10924000081D0A60FFF749B830B5B0F10A024FEACD
:10925000900E71F100034EEA817EB0EB0E0061EBDF
:1092600091014FEA101E4EEA017E10EB0E0041EB19
:1092700011114FEA102E4EEA016E10EB0E0041EB79
:1092800011214FEA104E4EEA014E10EB0E0041EB59
:109290001141401841F100014FEAD00040EA41700D
:1092A0004FEAD10110EB80054FEA810444EA907443
:1092B00044EB01046D1944EB0404521BA3414FF02D
:1092C000000348BF0A3200D530BD401C41F1000107
:1092D00030BD10B50446FFF74FFC0068005D00F09C
:1092E000010010BD70472DE9FF4F0C461E464FF0A0
:1092F000FF378BB0D2E90001DDF860800A908A4622
:10930000C1F30A5505B93D46002108464FF000005B
:10931000BAF1000F00F4400005DA00EB80004FF4D2
:10932000400101EA50004FEA9059B9F1010F00DD08
:10933000B9460A9850EA4A000ED044F61050A5F2F9
:10934000FF3545432F14B8F1000F1ED07542291E7A
:109350001EDDC9F100021CE0B8F1010F4FF0000062
:1093600001D0302103E0F24305E02154401CB0421B
:10937000FBDB30460022002121540B99C1F8088004
:10938000C1E900200FB0BDE8F08FBD1B6D1CDEE70A
:109390004A4600DA694206A800F0AEFD06AB93E843
:1093A000070003AB83E8070050460A9900F072FEFD
:1093B0008DE80700A0F500501F3800900398002D9D
:1093C0000ADD42F21F014A460844002303A9039024
:1093D000684601F0DBF809E0A0F500504A461F3866
:1093E000002303A90390684601F0E5F88DE8070023
:1093F0000004000C03D04FF0FF30410800E010469D
:10940000B8F1000F03D00022009215461EE0751E31
:1094100005D4FFF719FF303262556D1EF9D5B346FA
:109420000122084302D000227F1C04E0207830286B
:1094300001D100227F1E002A099784D01DE0112D42
:1094400007DAFFF701FF303262556D1C50EA010266
:10945000F5D1084302D00098C8B10EE00021681E83
:1094600005E0235C625C63542254401E491C814227
:10947000F7DBAB46A81B401E0990002004F80B0048
:109480000B98099AC0F80880C0E9002B7AE71126EA
:109490004FF0000857E72DE9F04F88460446D21DEB
:1094A00022F0070191B0D1E90001CDE90A0102F0F3
:1094B00057FF02460B98C00F01D02D2007E020680F
:1094C000810701D52B2002E0202101EAC000032AF8
:1094D000099001D0072A05DB03464146204600F0EB
:1094E000CBFC0BE12078800601D5E06900E0062086
:1094F000B8F1650F814606D0B8F1660F18D0B8F103
:10950000670F70D131E00020B9F1110F009001DB3D
:10951000112301E009F101030AAA01A90CA8FFF730
:10952000E2FEDDE90C70002609F10105834647E003
:1095300001204B4600904FF000470AAA01A90CA851
:10954000FFF7D1FEDDE90DB00C995D46002610B99C
:1095500009F101000D18B9EB050003D4C0F1FF3685
:1095600009F10105A5EB09002BE0B9F1010F01DAC2
:109570004FF001090020B9F1110F0090484601DDBC
:10958000112300E003460AAA01A90CA8FFF7ABFECD
:10959000DDE90C704D4600268346207800070AD48A
:1095A000AB4500DA5D4601A8012D04DD411911F833
:1095B000011C302907D04F4502DA17F1040F04DAF5
:1095C000012082460FE06D1EEEE7002F02DCED1B4E
:1095D0003E4403E0781CA84200DD7D1CB81B00F16E
:1095E000010A4FF000472078000703D4AA4501DBA9
:1095F0004FF0FF3A0021B7F1004F0DF143088DF80D
:10960000431024D002202B23002F01DA7F422D2388
:109610000A21021EA0F1010000DC5FB197FBF1FC02
:1096200097FBF1F201FB1C7C17460CF1300C08F89B
:1096300001CDEEE7A8F1010003702188090501D5ED
:10964000452100E06521A0F1010800F8011C0998FE
:109650000FA9A1EB0807FF1D00B10120411901EB83
:10966000EA70A1693844081A401EA0612078C0063B
:1096700002D42046FFF7DEFA099828B1D4E9012187
:109680009047206A401C20622078C00622D52046E0
:10969000FFF7D0FA1EE0002E04DBB34502DD01A87F
:1096A000805D00E03020D4E901219047206A401C11
:1096B0002062761CAAF101005FEA000A0AD1FFF7D6
:1096C000A5FDC0680168405CD4E901219047206A8B
:1096D000401C2062281EA5F10105DCDC07E0D4E96E
:1096E000012118F8010B9047206A401C2062381EA7
:1096F000A7F10107F3DC2046FFF7B2FA032011B00F
:1097000041E600002DE9F04F04460D46D21D22F03F
:10971000070089B0D0E900974846394602F020FE9C
:109720000246F80F01D02D2307E02068810701D5FC
:109730002B2302E0202101EAC0038DF820300BB179
:10974000012000E00020032A824601D0072A04DB22
:109750002946204600F090FB3FE12078800601D4A6
:109760000D2500E0E569C7F30A560D2D49DA002101
:109770004FEA175B08464FF00000002F00F440004E
:1097800007DA00EB80004FF4400100EBD07001EAF3
:1097900060008115012901DD4FF0FF3100224FEA01
:1097A000850CBCF1180F06D31346ACF118004FF02E
:1097B0008052C24003E04FF4801323FA0CF30CF103
:1097C0000C0CBCF1200F04D3ACF1200C09FA0CF006
:1097D00001E007FA0CF000294FF0004801DD18B94C
:1097E0000FE00ED140450CD319EB02095F4121B9BE
:1097F000404502D19F4329EA0209BBEB175F00D025
:10980000761C2088000502D57B48784402E07A481F
:109810007844193808AA302302F80A30037C0AF188
:109820000101002E0AF1020A53546A4602DC4FF08D
:10983000300101E04FF031014FF001088DF80010C8
:1098400002D0A6F2FF3603E059EA470100D06B4E82
:10985000002D02DC2178090704D54FF002082E21E3
:109860008DF80110C44600210BE0C7F303433F010C
:10987000C35C491C6D1E02F80830052908F1010877
:1098800001DA002DF1DC00210CE000EB1973491C1A
:109890001B786D1E082902F808304FEA091908F1F3
:1098A000010801DA002DF0DC21688B0602D516E0F4
:1098B000A8F10108E04505DD02EB080313F8013CBF
:1098C000302BF5D0B8F1000F09DD02EB080313F8D7
:1098D000013C2E2B03D1090701D4A8F10108002D6A
:1098E00005DD3E2102F808106D1E08F10108407CDC
:1098F000002E02F8080008F1010804DA2D20764253
:1099000002F8080002E02B2002F808000A214FF4B8
:109910007A70864208F101080BDB96FBF0F33033D6
:1099200002F8083096FBF0F308F1010800FB13661B
:1099300001E0642E0CDB642096FBF0F3303302F878
:10994000083096FBF0F308F1010800FB136601E014
:109950000A2E06DB96FBF1F0303002F8080008F121
:10996000010896FBF1F001FB1060303002F80800AE
:10997000A16908F1010808EB050202EB0A00081AC8
:10998000A0612078C00602D42046FFF753F9216A6F
:1099900008AE01EB0A00206204E0D4E9012116F8C8
:1099A000010B9047BAF1010AF7D22078C00602D520
:1099B0002046FFF73FF96E4609E016F8010B3E28F6
:1099C0000FD0D4E901219047206A401C2062B8F1F1
:1099D0000108F2D22046FFF743F909B00320BDE8A1
:1099E000F08F206A2844206203E0D4E9012130206E
:1099F00090476D1EEBD3F8E7754A000002FCFFFFAD
:109A000010B5436913B1AFF3008001E0FFF7F4F93B
:109A1000012010BD128800F1240182840022C2843A
:109A20000122EDE711684FF0FF32E9E72DE9F34F2E
:109A30004FF0000A0C4656468DB001200C9001F103
:109A40000C000B9062690B9801219047051E2DD0E8
:109A5000252D2CD0216A8847C0B162690B9801215D
:109A60009047216A88470028F7D16269411E0B9808
:109A7000904700E0761CA1690D988847216A8847C5
:109A80000028F7D1E1690D988847DBE7A1690D98B7
:109A90008847A842074601D1761CD3E7E1690D98B3
:109AA00088477F1C02D1BAF1000F6FD06CE1626968
:109AB0000B9800273D46394690472A2804D1626911
:109AC0000B98012190470125DFF8D08262690B983D
:109AD00001219047A0F130010A290AD24745E5DC6F
:109AE00007EB870100EB4107303FDFD445F010055D
:109AF000ECE7E90601D46FF000476C280AD04C2847
:109B000014D0682815D06A280DD074281CD07A2863
:109B10001AD01DE062690B98012190476C2802D091
:109B200045F0040514E045F002050DE045F0200580
:109B30000AE062690B9801219047682802D045F03D
:109B4000080505E045F4006562690B98012190471E
:109B5000C4E9015765283DD019DC58287AD00CDCBF
:109B6000452837D004DC252826D041289ED131E075
:109B700046282FD0472899D12CE05B2877D0612840
:109B800028D063287CD0642823D15AE0F7E06F28DE
:109B900048D008DC66281DD067281BD0692821D052
:109BA0006E2816D127E0702845D0732868D0752814
:109BB00047D078280DD14DE0A1690D988847252818
:109BC00005463FF469AFE1690D9888476D1C3FF485
:109BD0006AAFD9E00D9923466A466FF00100AFF3F2
:109BE0000080C6E045F0400023464FF00002606070
:109BF000A80736D43EE0E8077FF447AF2068011D90
:109C000021600068290501D506701BE7290701D5E9
:109C1000068017E7A90703D5F117C0E9006111E72E
:109C200006600FE745F0400023464FF008026060F1
:109C3000A80716D41EE040F60E0125EA0100606078
:109C400016E045F0400023464FF00A026060A80786
:109C500007D40FE045F040006060A80708D5234610
:109C600010220D996FF00100AFF3008081E007E052
:109C7000102223460D996FF00100FEF7CDFC78E02D
:109C80004FF0000963284F46C8464B46CB4602D0EA
:109C90005B2807D039E02079C00601D40120A060FC
:109CA000012732E06269D4F80CB00B98012190478B
:109CB0005E2807D14FF0010949466269D4F80CB01B
:109CC0000B989047216939B900210A4603AB43F844
:109CD0002120491C0829FADBD8B3216949B308F1CE
:109CE000010862690B98012190475D28F4D1B9F110
:109CF000000F09D0002003A951F82020D24341F8D9
:109D00002020401C0828F7DB03AB206900282079BD
:109D10004FEA40701ED05B462246CDF80080CDE968
:109D200001970D9900286FF0010020DAAFF3008051
:109D30001FE0C11703AA00EBD1614B1121F01F01F5
:109D400002EB8302411A1368012088400343136029
:109D5000C7E719E00D99224600286FF0010000972F
:109D600002DAAFF3008004E0FEF7FCFC01E0AFF3A1
:109D7000008000280ADA401C06D10C9820B14FF070
:109D8000FF300FB0BDE8F08F5046FAE7E90701D188
:109D90000AF1010A064400200C9053E6CCCCCC0C0E
:109DA00070B516460C460546FEF7E6FE036893F8C6
:109DB0000101012806D0FF2C0FD8185D68B10120E1
:109DC0002C7070BDD3F807013246214603F2071309
:109DD00003442846BDE8704018474FF0FF3070BD7F
:109DE00010B500F009F9BDE8104000F000B930B539
:109DF00003461D781DB10A4603E0AC4201D1181A92
:109E000030BD12F8014B002CF7D15B1CF1E730B5E7
:109E100003461D783DB10A4612F8014B1CB1AC4215
:109E2000FAD15B1CF5E7181A30BD70477546FFF78D
:109E3000E9F9AE4605006946534620F0070085461D
:109E400018B020B5FEF708FABDE820404FF0000634
:109E50004FF000074FF000084FF0000B21F0070112
:109E6000AC46ACE8C009ACE8C009ACE8C009ACE855
:109E7000C0098D46704700002DE9F0411F46044699
:109E800003260168072A01F4006004DB08B116A567
:109E900005E016A503E008B115A500E015A521F021
:109EA00010002060A069C01EA0610FB1401EA0611B
:109EB0002046FEF7BFFE4FB1D4E901213846904756
:109EC000206A401C2062C01C206206E0206AFAE77B
:109ED000D4E9012115F8010B9047761EF8D22046EF
:109EE000FEF7BEFEBDE8F0814E414E006E616E0091
:109EF000494E4600696E66002DE9F04781461646D8
:109F00008AB0354878440DC88DE80D003248784451
:109F1000801C03AC0DC884E80D0041F69B3008445A
:109F2000372190FBF1F290FBF1F5A5F1800501FBE3
:109F300012041B3C02D56442012000E00020DFF83F
:109F400098A080460027FA44AAF1BE0A0EE0E00776
:109F50000AD03246684607EB470101230AEB81012C
:109F600000F029FB8DE8070064107F1C002CEED167
:109F7000194F7F44AE3F19E0E80715D007EB0410F6
:109F80000DF1180A90E80E008AE80E00C068F04251
:109F900001D1981908903246012306A903A800F0C0
:109FA0000AFB03AB83E807006D10641C002DE3D1AE
:109FB0004FF0010332466946B8F1000F03A802D002
:109FC00000F0E4FA01E000F0F6FAC9E90001C9F88E
:109FD00008200AB0BDE8F0870C44000010B5044624
:109FE000AFF300802046BDE81040FEF720B90028FE
:109FF00001D000F029B8704710B5012805D0002124
:10A0000003A000F027F8012010BD09A1F8E7000027
:10A0100053494752544D454D3A204F7574206F6651
:10A020002068656170206D656D6F727900000000B9
:10A030003A2048656170206D656D6F727920636F9D
:10A04000727275707465640001491820ABBEFEE73A
:10A050002600020070B505460C460A2000E06D1C83
:10A0600000F011F835B128780028F8D102E0641C1E
:10A0700000F009F814B120780028F8D1BDE870404C
:10A080000A20AFF3008008B569468DF80000032070
:10A09000ABBE08BD5FEA400C08BF91F0000F4FEA6D
:10A0A0008C234FEAC12243EA51514FEA1C5018BF9A
:10A0B00000F5F0404FEA300018BF41F000415FEA80
:10A0C0006C5C00F02980BCF1FF3F08BF40F080408D
:10A0D0007047130C06BF12044FF0100C4FF0000C29
:10A0E000130E04BF12020CF1080C130F04BF12016F
:10A0F0000CF1040C930F04BF92000CF1020CD30F6F
:10A1000004BF52000CF1010C11464FF00002A0F107
:10A110001F00A0EB0C00704711F0004F08BF704704
:10A1200031F000413FF4D5AF0B0C06BF09044FF0EE
:10A13000100C4FF0000C0B0E04BF09020CF1080CC0
:10A140000B0F04BF09010CF1040C8B0F04BF890035
:10A150000CF1020CCB0F04BF49000CF1010CCCF147
:10A160002003A0EB0C0022FA03F302FA0CF241EAFE
:10A17000030100F10100704720F07F4C80EA0300EA
:10A1800023F07F47ACEB070303F57C5300F000405E
:10A1900003F1FF032DE980494FEA154B09B44FEA5B
:10A1A000144325EA0B4E24EA03480FF2042606EB7B
:10A1B000132749083E785FEA320203FB0667C7F5BA
:10A1C000000707FB06F64FEA54374FEAD64606F17A
:10A1D000020607FB066CCCF1005C4FEA1C472CEA38
:10A1E000074C07FB06F40CFB06F504EB15464FEA9B
:10A1F000961634BF00204FF000404FEAD13706FBDF
:10A2000007FC4FEA1C4C0CFB0BF7D21B03FB0CF7B3
:10A2100061EB07010CFB0EF7B0EB074072EB174246
:10A220000CFB08F734BFA2EB0742B2EB074261EB2D
:10A2300017414FEA0C444FEA910706FB07FC4FEA2F
:10A240001C4C0CFB0BF7B0EBC74072EB573203FB17
:10A250000CF734BFA2EBC742B2EBC74261EB5731F8
:10A260000CFB0EF7B0EBC70072EB57720CFB08F754
:10A2700034BFA2EBC702B2EBC70261EB5771039F79
:10A280004FEA816141EA921104EBCC044FEAD137E5
:10A290004FEA826206FB07FC42EA90124FEA8060B6
:10A2A0004FEA1C4C0CFB0BF7D21B03FB0CF761EBCA
:10A2B00007010CFB0EF7B0EB074072EB17420CFBEB
:10A2C00008F734BFA2EB0742B2EB074261EB17413C
:10A2D0004FEA8C554FEA910704EB9C2406FB07FCE0
:10A2E0004FEA1C4C0CFB0BF7B0EBC74072EB57323C
:10A2F00003FB0CF734BFA2EBC742B2EBC74261EBE2
:10A3000057310CFB0EF7B0EBC70072EB57720CFB2A
:10A3100008F734BFA2EBC702B2EBC70261EB57717B
:10A3200015EB4C254FEA816141EA92114FEA8262B6
:10A330004FEAD13742EA901206FB07FC44F10004D1
:10A340004FEA80604FEA1C4C0CFB0BF7D21B03FB5F
:10A350000CF761EB07010CFB0EF7B0EB074072EB5B
:10A3600017420CFB08F734BFA2EB0742B2EB0742DF
:10A3700061EB174115EB1C154FEA813141EA92411F
:10A380004FEA823242EA90424FEA80304FEA0C763E
:10A3900044F1000448EA03434EEA0B484FF0000E34
:10A3A000B2EB080C71EB030724BF624639464EEB53
:10A3B0000E0E4FF0000B0018524149414BEB0B0BB6
:10A3C000B2EB080C71EB03077BF1000B24BF624674
:10A3D00039464EEB0E0E4FF0000B0018524149412A
:10A3E0004BEB0B0BB2EB080C71EB03077BF1000B93
:10A3F00024BF624639464EEB0E0E51EA020718BFE3
:10A4000046F0010616EB0E7655F1000254F10001FC
:10A4100003D5BDE88901BDE80088BDE88901BDE834
:10A420000048B619524141EB0101A3F10103704705
:10A4300080807F7E7D7C7B7A797877767675747381
:10A44000727171706F6E6E6D6C6C6B6A6A69686840
:10A45000676666656464636362616160605F5F5ED6
:10A460005E5D5D5C5C5B5B5A5A595958585757564C
:10A4700056555555545453535252525151505050B1
:10A480004F4F4F4E4E4D4D4D4C4C4C4B4B4B4A4A03
:10A490004A49494948484847474747464646454547
:10A4A0004544444444434343434242424241414180
:10A4B000002B9C4630D477002BD01CB54FEA3707D1
:10A4C00003B44FF010004FF01001BAF1000F06D0A6
:10A4D000BCF1000FDCBF40F0080040F008014FF075
:10A4E00000000FBCBDE810400BF1010BBBF1010FE8
:10A4F00008BF5FEA170722BF12F1010211F1010143
:10A500004FF0004143F1000300F0004043EA000037
:10A510007047F9D35708D0E746EA064613F1400FD3
:10A520004FEA16461FDD13F1200FDFBF16430A4620
:10A53000002120335B42BED0C3F1200746EA064625
:10A5400002FA07F74FEA164646EA0706C3F1200764
:10A5500022FA03F201FA07F721FA03F14FF00003A0
:10A5600042EA0702A7E746EA020646EA06464FEA3B
:10A57000164646EA0106BCBF46EA0646360C4FF0D0
:10A5800000034FF000024FF0000194E72DE9804CEA
:10A590009A46934670B491E8380007C831EA400CF7
:10A5A00048BF34EA430C03D5FFF7E6FDFFF780FF11
:10A5B000F0BCBDE8008C2DE9804C9A46934670B4FF
:10A5C00091E8380007C810F0804F08BF13F0804FA3
:10A5D00003D100F005F8FFF76BFFF0BCBDE8008C7D
:10A5E00020F07F4780EA030023F07F4C07EB0C0349
:10A5F000A3F57C5300F00040A3F1FE0392F0000F9E
:10A6000000F0B38095F0000F00F077802DE901494C
:10A610004FEA11404FEA144621EA004800FB06FCCD
:10A6200024EA064708FB06F607FB08F800FB07F7D5
:10A6300018EB06484CEB164C4FEA124B18EB074848
:10A640004FEA15464CEB174022EA0B4E0BFB06FC7B
:10A6500025EA06470EFB06F607FB0EFE0BFB07F787
:10A660001EEB064E4CEB164C4FF000061EEB074E51
:10A670004CEB174B18EB0B0840F1000018EB0E0BDE
:10A6800058EB000840F100008F1A4FF000013CBF6A
:10A69000C943661B14BFB5EB040C00213CBFC94382
:10A6A000F61B4FEA17444EEA8E0E27EA04454FEA9E
:10A6B0001C4704FB07622CEA074C05FB07F70CFB61
:10A6C00005F604FB0CFC16EB074642EB174216EBB3
:10A6D0000C4642EB1C421BEB060658EB02024141C2
:10A6E00046EA9E0601D5BDE80189B619524141EB03
:10A6F0000101A3F10103BDE801894FEA14454FEAC6
:10A70000114724EA054621EA074C05FB07F406FB3E
:10A7100007F70CFB06F105FB0CFC11EB074144EBC2
:10A7200017444FEA124711EB0C4144EB1C4422EA58
:10A73000074C05FB07F206FB07F70CFB06F605FBCB
:10A740000CFC16EB074642EB174216EB0C4642EBAD
:10A750001C456A1854F1000148BF7047B6195241B0
:10A7600041EB0101A3F10103704795F0000F37D0D1
:10A770004FEA11424FEA144721EA024624EA074C05
:10A7800002FB07F106FB07F70CFB06F402FB0CFCCF
:10A7900014EB074441EB17414FEA154714EB0C4407
:10A7A00041EB1C4125EA074C02FB07F506FB07F7C6
:10A7B0000CFB06F602FB0CFC16EB074645EB1745B7
:10A7C00016EB0C4645EB1C42121951F1000148BF33
:10A7D0007047B619524141EB0101A3F101037047E3
:10A7E0004FEA14454FEA114724EA054621EA074C8F
:10A7F00005FB07F106FB07F70CFB06F24FF000061E
:10A8000005FB0CFC12EB074241EB174112EB0C422B
:10A8100051EB1C4148BF7047921841EB0101A3F175
:10A8200001037047FEE7704772B6FEE770B5044655
:10A8300000F010F90546601C02D00448007804447A
:10A8400000F008F9401BA042FAD370BD00000020C0
:10A850002DE9F84FDFF8B891002409F1040A0AF154
:10A86000040B23460F270BF1040EC9E00125A54078
:10A870002A40AA427DD1674ED1F804C0ACEB06084D
:10A88000B44532D014DCBCF1030F3AD009DCBCF182
:10A89000000F2AD0BCF1010F1CD0BCF1020F31D146
:10A8A0001DE0BCF1110F17D0BCF1120F2AD119E035
:10A8B000B8F5881F19D006DCB8F5803F15D0B8F57B
:10A8C000801F1FD111E0B8F5001F0ED0B8F5041F8E
:10A8D00018D10AE0CB6815E0CB681B1D12E0CB68ED
:10A8E00008330FE0CB680C330CE08B682BB1012BE5
:10A8F0004FF0080303D0456104E0042302E0056142
:10A9000000E00023FF2A01D8064601E000F104061A
:10A910004FEA840501D9A5F12005D6F8008007FA91
:10A9200005FC28EA0C0803FA05F548EA0508C6F80C
:10A9300000804D68ED0062D5374DAE6946F00106E6
:10A94000AE61AD6924F0030605F001050095334DB5
:10A9500006EB050CDCF80850A607360F07FA06F8D8
:10A9600025EA0805DFF8B880404503D14FF000081C
:10A9700017E044E0DFF8AC80404502D14FF0010819
:10A980000FE0DFF8A480404502D14FF0020808E054
:10A99000DFF89880404502D14FF0030801E04FF006
:10A9A000040808FA06F848EA0508CCF808804D685B
:10A9B000D9F80060ED034D4601D5164300E09643FB
:10A9C0002E604D68DAF80060AD03554601D5164398
:10A9D00000E096432E604D68DBF80060ED025D46B6
:10A9E00001D5164300E096432E604D68DEF8006006
:10A9F000AD02754601D5164300E096432E60641CF7
:10AA00000D682A46E5407FF431AFBDE8F88F0000BD
:10AA1000000401400000111000100240000001403D
:10AA200000080140000C01400010014000140140EA
:10AA30008068084000D001207047C2680A4201D0F7
:10AA400041617047016170470AB1016170470904B3
:10AA5000FBE700000148806870470000000000200C
:10AA6000024881680278114481607047000000202C
:10AA7000074810B5016841F010010160032000F0A3
:10AA800067F80F2000F006F800F024F8002010BD51
:10AA90000020024070B50D4D04464FF47A712878BD
:10AAA000B1FBF0F00A490968B1FBF0F000F09BFD42
:10AAB00048B9102C07D200222146501E00F028F879
:10AAC00000206C6070BD012070BD000000000020FF
:10AAD0000C0000200C4808B5816941F0010181613A
:10AAE000816901F001010091C16941F08051C161AA
:10AAF000C06900F0805000900448416821F0E06196
:10AB000041F00071416008BD0010024000000140AA
:10AB1000F0B40E4B1B680C46C3F30223C3F10705C8
:10AB2000042D00D90425191D072901D2002300E0B6
:10AB3000DB1E012606FA05F1491E214099409E4080
:10AB4000761E16403143F0BC01F01EBC0CED00E057
:10AB5000064900F0070208684FF6FF03184040EA74
:10AB60000220034A10430860704700000CED00E02B
:10AB70000000FA052DE9F0470F46050061D0434E6D
:10AB8000306800F00700B84209D2306820F00700B2
:10AB900038433060306800F00700B84251D128686F
:10ABA0003B4C810712D5400703D5606840F4E06054
:10ABB00060602878000703D5606840F460506060EA
:10ABC0006068A96820F0F000084360602878C0073A
:10ABD00028D06868012810D02168022810D0890781
:10ABE00000292EDA616821F0030101436160FFF75B
:10ABF00031FF804641F288390DE021688903EFE793
:10AC00008901EDE7FFF726FFA0EB0801494502D9CE
:10AC10000320BDE8F0876068696800F00C00B0EBC5
:10AC2000810FEFD1306800F00700B8420BD93068CF
:10AC300020F0070038433060306800F00700B84269
:10AC400001D00120E5E72878400705D56068E9686C
:10AC500020F4E060084360602878000706D560684B
:10AC6000296920F4605040EAC100606000F038F8C3
:10AC70006168084AC1F30311515CC8400649086085
:10AC800006480068FFF706FF0020C2E700200240E8
:10AC90000010024014E200080C0000200400002014
:10ACA0000448054900684968044AC1F30221515C1F
:10ACB000C84070470C0000200010024024E2000849
:10ACC0000448054900684968044AC1F3C221515C3F
:10ACD000C84070470C0000200010024024E2000829
:10ACE00012A185B00FC98DE80F0014A0144A0068A6
:10ACF00004905168134801F00C03042B10D0082B6A
:10AD00000ED1C1F38343C9031DF803000AD551686E
:10AD100004AAC1F34041515C0A4A5043B0FBF1F030
:10AD200005B0704708494843FAE7000002030405EC
:10AD3000060708090A0B0C0D0E0F10100102000087
:10AD40000010024000127A0000093D002DE9F84F82
:10AD5000040070D02078C04DC00749D06868C0F3A7
:10AD60008100012807D06868C0F38100022809D15A
:10AD70006868C00306D52868800339D56068002854
:10AD8000E7D035E06068B0F5803F0BD010B1B0F58A
:10AD9000A02F11D0286820F480302860286820F483
:10ADA000802002E0286840F480302860606890B11C
:10ADB000FFF750FE06460AE0286840F4802028602D
:10ADC000F0E700BFFFF746FE801B642873D82868B1
:10ADD0008003F7D50CE0FFF73DFE064605E000BF17
:10ADE000FFF738FE801B6428F0D828688003F7D46A
:10ADF00020789A4E80074FF001094FF0000839D5AE
:10AE0000686810F00C0F07D06868C0F38100022852
:10AE100009D16868C00306D42868800714D5206962
:10AE2000012808D110E02069B0B1C6F80090FFF702
:10AE300011FE074605E00AE1FFF70CFEC01B0228E1
:10AE4000C4D828688007F7D52868616920F0F80021
:10AE500040EAC10028600DE0C6F80080FFF7FAFD67
:10AE6000074604E0FFF7F6FDC01B022823D8286838
:10AE70008007F7D4207800072CD57948A169D9B18B
:10AE8000C0F80090FFF7E6FD074604E0FFF7E2FD9B
:10AE9000C01B02280FD8686A8007F7D571484FF4A5
:10AEA000FA510068B0FBF1F0009000BF0098411E1D
:10AEB0000091FAD20EE080E0C0F80080FFF7CAFDF2
:10AEC000074604E0FFF7C6FDC01B022875D8686A74
:10AED0008007F7D42078400760D5E8690027C000D4
:10AEE00008D4E86940F08050E861E869012700F083
:10AEF000805000905C480168C90513D401688346FE
:10AF000041F480710160FFF7A5FD824606E000BFB5
:10AF1000FFF7A0FDA0EB0A0064284ED8DBF8000084
:10AF2000C005F5D5E06801280AD008B1052813D07E
:10AF3000286A20F001002862286A20F0040002E05C
:10AF4000286A40F001002862E06841F2883B98B12D
:10AF5000FFF780FD82460BE0286A40F0040028627B
:10AF6000EEE700BFFFF776FDA0EB0A0159455AD87E
:10AF7000286A8007F6D50CE0FFF76CFD824605E0F5
:10AF8000FFF768FDA0EB0A0159454CD8286A8007F5
:10AF9000F6D41FB1E86920F08050E861E06988B319
:10AFA0006968C1F38101022944D00228C6F8608093
:10AFB00004D0FFF74FFD044638E034E0FFF74AFDC8
:10AFC000074604E0FFF746FDC01B02282BD828687F
:10AFD0008001F7D4206AB0F5803F05D16868A16888
:10AFE00020F4003008436860D4E908010843696828
:10AFF00021F4741108436860C6F86090FFF72AFDD9
:10B00000044606E025E000BFFFF724FD001B0228F0
:10B0100009D828688001F7D51BE000BFFFF71AFDAB
:10B02000001B022802D90320BDE8F88F28688001A0
:10B03000F4D40EE00128F7D06868226A00F4803169
:10B04000914204D1616A00F47010884201D001205D
:10B05000EAE70020E8E7000000100240000042425A
:10B06000800442420C0000200070004070B50400D3
:10B0700005D00025A56294F8510010B106E001202A
:10B0800070BD84F85050204600F02EF8022084F85D
:10B0900051002068016821F040010160D4E90101FC
:10B0A0000843D4E903121143084361690843218B23
:10B0B00001F400710843E1690843216A0843A16A69
:10B0C000084321680860A069042101EA1040216852
:10B0D00048602068C16921F40061C1616565012093
:10B0E00084F85100002070BD30B585B00024009474
:10B0F00001940294039400681449884223D11448AF
:10B10000816941F480518161816901F48051049128
:10B11000816941F00401816180690E4D00F00400F5
:10B120000490A02000900220019003200390694623
:10B130002846FFF78DFB4020CDE9000469462846EC
:10B140000294FFF785FB05B030BD000000300140E0
:10B1500000100240000801402DE9F84F0446406805
:10B160000025984616460F464FF0040BB0F5827F37
:10B1700001D1A06888B194F85000012818D00120AE
:10B1800084F85000FFF766FC814694F851004FF0B8
:10B19000000A01280ED002257DE084F851B0134644
:10B1A0000A462046CDF8008000F02CF9BDE8F88F63
:10B1B0000220FBE7002F6DD0002E6BD084F851B039
:10B1C000C4F854A0A763A687E687C4F830A0A4F803
:10B1D00034A0A4F836A0C4F840A0C4F844A0A068E5
:10B1E000B0F5004F04D12068016821F4804101606E
:10B1F00020680168490603D4016841F040010160FC
:10B20000E068D8B139E020688168C90709D0007BBF
:10B21000A16B0870A06B401CA063E08F401EE0870C
:10B220000CE0FFF717FCA0EB0901414503D3B8F18F
:10B23000FF3F03D036E0B8F1000F33D0E08F002895
:10B24000E1D11DE020688168C90709D0C068A16B01
:10B250000880A06B801CA063E08F401EE0870CE09C
:10B26000FFF7F8FBA0EB0901414503D3B8F1FF3F1D
:10B2700003D017E0B8F1000F14D0E08F0028E1D11F
:10B280004A464146204600F00FFF08B12020606585
:10B29000606D00B10125012084F8510084F850A0B0
:10B2A000284683E70325F6E72DE9F84F044690F892
:10B2B000500000271D461646894601280DD04FF044
:10B2C000010B84F850B0FFF7C5FB804694F851009D
:10B2D000BA46012804D002278EE00220BDE8F88F8C
:10B2E000B9F1000F7DD0002E7BD0032084F85100EF
:10B2F000C4F854A0C4F83090A686E686C4F838A0F6
:10B30000A4F83CA0A4F83EA0C4F844A0C4F840A00F
:10B31000A068B0F5004F04D12068016841F4804175
:10B32000016020680168490603D4016841F04001CA
:10B330000160E068B0F5006F606803D030B3012EA3
:10B3400024D040E008B1012E1CD1206B2168008878
:10B35000C86006E020688168890709D5216B0988E3
:10B36000C160206B801C2063E08E401EE08609E0F7
:10B37000FFF770FBA0EB0800A84202D3681C01D0C5
:10B3800031E07DB3E08E0028E4D11FE0206B21681E
:10B390000078087306E020688168890709D5216B69
:10B3A00009780173206B401C2063E08E401EE0860C
:10B3B00009E0FFF74FFBA0EB0800A84202D3681C8E
:10B3C00001D010E075B1E08E0028E4D14246294654
:10B3D000204600F097FE08B120206065A06820B1EB
:10B3E00007E008E0FFE7032706E02068C1688068FF
:10B3F0000090606D00B1012784F851B084F850A02E
:10B4000038466BE72DE9F84F044690F850000027C6
:10B410000A9E1D4692468B464FF0010901280ED028
:10B42000012084F85000FFF715FB804694F8510086
:10B43000616801280CD0B1F5827F07D102E00220BB
:10B44000BDE8F88FA16809B9042801D00227C2E03D
:10B45000BBF1000F27D0BAF1000F24D01DB394F830
:10B460005100042802D0052084F8510000206065B6
:10B47000C4F838A0E587A587C4F830B0E586A5866E
:10B480002064606420680168490603D4016841F0C3
:10B4900040010160E068B0F5006F606805D0E8B376
:10B4A000012D46D07FE0012795E008B1012D39D16B
:10B4B000206B21680088C860206B801C2063E08EB0
:10B4C000401EE0862EE02068816889070FD5E18E56
:10B4D00069B1B9F1010F0AD1216B0988C160206BF4
:10B4E000801C2063E08E401EE0864FF0000920683B
:10B4F0008168C9070CD0E18F51B1C068A16B088089
:10B50000A06B801CA063E08F401EE0874FF0010914
:10B51000FFF7A0FAA0EB0800B04200E009E001D379
:10B52000701C50D1E08E0028CDD1E08F0028CAD108
:10B530003FE0206B216800780873206B401C20637B
:10B54000E08E401EE0862EE02068816889070FD5D6
:10B55000E18E69B1B9F1010F0AD1216B097801734C
:10B56000206B401C2063E08E401EE0864FF00009F7
:10B5700020688168C9070CD0E18F51B1C068A16B08
:10B580000870A06B401CA063E08F401EE0874FF066
:10B590000109FFF75FFAA0EB0800B04202D3701C6C
:10B5A00001D010E07EB1E08E0028CDD1E08F0028E0
:10B5B000CAD142463146204600F0A4FD28B10127F9
:10B5C0002020606507E0032705E0A06818B920681F
:10B5D000C16880680090012084F85100002084F840
:10B5E000500038462CE710B5401EB0F1807F01D3E3
:10B5F000012010BD4FF0E02460610F21601700F0C2
:10B60000C3FE0020A06107202061002010BD70B59E
:10B61000040004D094F83900002510B106E00120A0
:10B6200070BD84F83850204600F022F8242084F8B9
:10B6300039002068C16821F40051C160204600F043
:10B6400011FE2068016921F490410161206841697F
:10B6500021F02A0141612068C16841F40051C160B4
:10B66000E563202084F8390084F83A00002070BD9A
:10B6700030B585B0002400940194029403940068CE
:10B680001449884223D11448C16941F40031C16191
:10B69000C16901F400310491816941F004018161C3
:10B6A00080690E4D00F004000490042000900220F8
:10B6B00001900320039069462846FFF7C9F8082047
:10B6C000CDE90004694628460294FFF7C1F805B0A9
:10B6D00030BD00000044004000100240000801405E
:10B6E000FEE70000044908B58A6902438A61896956
:10B6F0000140009108BD000000100240F0B50A684A
:10B70000C2F30F2595FAA5F2B2FA82F369E001229D
:10B710009A402A4264D0082B03D240F201129A4088
:10B7200006E0A3F108024FF00114944044F0806257
:10B7300092FAA2F700EB1264B7FA87F74FEA870C88
:10B740000F27266807FA0CF7BE4392FAA2F7D1F842
:10B7500004E0B7FA87F7BF000EFA07FE46EA0E06C6
:10B7600026600E69C7684FEA122C9CFAACFCBCFA42
:10B770008CFC27EA122706FA0CF63743C7604E689E
:10B78000012E01D0092E2BD192FAA2F7B7FA87F732
:10B790004FEA870C032707FA0CF72668D1F808E070
:10B7A000BE4392FAA2F7B7FA87F7BF000EFA07FE78
:10B7B00092FAA2FC46EA0E06BCFA8CFC4FEA8C0E0A
:10B7C0004FF0040C26600CFA0EFC92FAA2F2B2FAC8
:10B7D00082F2CF68920026EA0C0697403E4326602C
:10B7E0005B1C35FA03F292D10020F0BD00B5034690
:10B7F00000F0C6F9186000F099F9586000F0A4F95B
:10B800009860586800F0AEF9D86000BD2DE9FF419E
:10B810000446C0680D460126C0F34030F0BBE9681D
:10B820006868E2680843296941F20C639A4311434E
:10B830000843E060A868216921F440510143216177
:10B840006869616921F44071014361616846FFF7ED
:10B85000CDFF2448844201D1039806E02248844267
:10B8600002D02248844238D10298B8B12A68AAB1DD
:10B8700000EBC00101EB00119200B1FBF2F3642078
:10B88000B3FBF0F3B1FBF2F56FF018077B43002632
:10B8900005EB8305322303EB051500E01DE0B1FB4A
:10B8A000F2F7B5FBF0F5B7FBF0F705F0F00505EBA7
:10B8B0000715B1FBF2F7B1FBF2F1B1FBF0F16FF05C
:10B8C0001802514307EB810103EB0111B1FBF0F0CA
:10B8D00000F00F00284480B2A06004B03046BDE8FC
:10B8E000F081000000380140004400400048004062
:10B8F0002DE9F04786B00024344800940194029466
:10B900000394816941F010018161816901F01001A6
:10B910000491816941F020018161816901F0200178
:10B920000491816941F004018161816901F00401A0
:10B930000491816941F0080181618069DFF890809C
:10B9400000F008004FF400550490002229464046BC
:10B95000FFF77AF8DFF87C90002210214846FFF7C5
:10B9600073F8DFF874A06F00002239465046FFF7E5
:10B970006BF80095022601250396CDE9015469462E
:10B980004046FEF765FFCDE90054694648460294FB
:10B99000FEF75EFF1020CDE90005CDE902466946BD
:10B9A0004846FEF755FF00970396CDE901546946D6
:10B9B0005046FEF74DFF6802CDE900046946504647
:10B9C0000294FEF745FF06B0BDE8F0870010024084
:10B9D0000010014000080140000C0140104810B563
:10B9E0000E4901604FF48271416000218160C160A5
:10B9F0004FF400720161C0E905122022C0E907215D
:10BA0000416281620A21C162FFF730FB002803D046
:10BA1000BDE81040FEF708BF10BD00000030014037
:10BA20003400002030B58DB01C216846FDF70EF8BB
:10BA3000142107A8FDF70AF84FF48040FFF752FEE3
:10BA40000420FFF74FFE23480790092008900320A9
:10BA50000024CDE90904204D07A92846FFF74EFE32
:10BA60001E4807900420089007A92846FFF746FEC5
:10BA70001B480068C0F30220011D072901D20020E5
:10BA800000E0C01E04FA00F10801164981F8000424
:10BA9000144920202139C1F800014FF4E130CDE9EB
:10BAA00000040C200294CDE90340059406940E4C4A
:10BAB00069462046FFF7AAFE206920F490402061E5
:10BAC000606920F02A006061E06840F40050E060A6
:10BAD0000DB030BD0200020400080140040004045F
:10BAE0000CED00E025E000E0003801400C4810B506
:10BAF0000A4901604FF4E1314160002181600C226C
:10BB0000C160C0E904128161C161FFF780FD0028B6
:10BB100003D0BDE81040FEF787BE10BD00440040D2
:10BB20008C000020FEE7FEE77047000004494968EA
:10BB3000044A01F0F0010909515CC8407047000057
:10BB40000010024014E2000804494968044A01F464
:10BB5000E06102EB11210978C840704700100240F3
:10BB600024E2000804494968044A01F4605102EBE8
:10BB7000D1210978C84070470010024024E2000833
:10BB80000648406810F00C01054805D0042903D090
:10BB9000082901D100F006B87047000000100240EB
:10BBA00000127A000B48416811F480320A4909D02A
:10BBB000B2F5803F06D14168084AC1F34041491CB3
:10BBC000B2FBF1F14068022200F4701002EB9040E9
:10BBD000484370470010024000093D0000127A00FF
:10BBE00010B5028A406893B20A461946FEF72CFF48
:10BBF0000020401C0A28FCDB10BD000038B50546BB
:10BC000000F0DCF815A0002400680090284600F041
:10BC1000B5F9C8B100212846FFF7E2FF64230122ED
:10BC20006946284600F060F900284FF001012846D7
:10BC300011D0FFF7D5FFE9694FF47A7041432846E8
:10BC400000F068F900B10124284600F07DF90020D9
:10BC50002873204638BDFFF7C3FFF5E760000000FA
:10BC60003EB504463CA000250068029029462046C7
:10BC7000FFF7B6FF64200090042301AA02A9204622
:10BC800000F03CF900284FF0010120461AD0FFF7E0
:10BC9000A7FF9DF8050020729DF80610E1729DF83F
:10BCA0000710002261728C2827D015DC372824D099
:10BCB0000BDC012821D004281FD01C281DD02028EF
:10BCC0001AD11AE0FFF78CFF44E0622815D08528CE
:10BCD00013D0892810D110E0BF280ED006DC9D2893
:10BCE0000BD0A12809D0AD2806D106E0C22804D087
:10BCF000C82802D0EF2800D022721139102921D291
:10BD0000DFE801F0080A0D0F111315171A20202083
:10BD10002020201D022000E00420E06114E0082023
:10BD2000FBE71020F9E72020F7E74020F5E7802027
:10BD3000F3E74FF48070F0E74FF40070EDE74FF455
:10BD40008060EAE76272E0690001A0610003000A16
:10BD50000125606128463EBD9FFFFFFF2DE9F041B0
:10BD6000984616460F4604004FF0000523D017B33F
:10BD70000EB3A07A01281ED020212046FCF766FED3
:10BD8000C4F81080C4E9007601212046FFF728FF9F
:10BD900002E00120FEF74AFDFEF75CFE1428F8D30E
:10BDA000204600F0D1F830B12046FFF759FF0500DA
:10BDB00001D00120A0722846BDE8F08110B50446EC
:10BDC00002E000BFFEF732FD207B00284FF00100AB
:10BDD000F8D1207310BD2DE9FC410C4600251F460B
:10BDE000904606462946FFF7FBFEF369C4F3074277
:10BDF000C4F30721E0B2B3F5007F0ED313238DF80F
:10BE00000030230E8DF801308DF8022064238DF868
:10BE100003108DF8040005220AE003238DF800309A
:10BE20008DF801208DF8021064238DF803000422A0
:10BE30006946304600F058F878B14FF4FA633A4654
:10BE40004146304600F046F838B101213046FFF750
:10BE5000C7FE01252846BDE8FC8101213046FFF7D9
:10BE6000BFFEF7E72DE9F0411C4690460F46054618
:10BE7000069EFFF7A3FFC6F5807206EB07219442EA
:10BE800000D91446234642462846FFF7A4FF002166
:10BE90002973BDE8F08100003EB505460CA00024E2
:10BEA0000068019021462846FFF79AFE6420009022
:10BEB000022302AA01A9284600F020F808B19DF843
:10BEC000094001212846FFF78BFE20463EBD0000B9
:10BED00005A5000010B5002492B20068FFF73CF9F8
:10BEE00000B90124204610BD10B5002492B20068AC
:10BEF000FFF7DAF900B90124204610BD38B5002457
:10BF0000049D00959BB20068FFF77CFA00B90124FC
:10BF1000204638BD2DE9F0410E4607460025FEF7C4
:10BF200099FD04460120FEF781FCFEF793FD001BFE
:10BF3000B04205D23846FFF7AFFFC007F2D1012566
:10BF40002846BDE8F081000038B505460AA0012466
:10BF50000068009000212846FFF742FE642301227A
:10BF600069462846FFF7C0FF00B900240121284692
:10BF7000FFF736FE204638BD0400000038B5054600
:10BF80000AA001240068009000212846FFF728FE3F
:10BF90006423012269462846FFF7A6FF00B9002462
:10BFA00001212846FFF71CFE204638BD0600000090
:10BFB0002DE9FC4780460E460A9DD8F8141000274C
:10BFC0001C469246C5F58070B1424ED9FF2D4CD823
:10BFD000844200D9044605EB06294046FFF7CEFF10
:10BFE000F0B300214046FFF7FBFD05EB0622D8F831
:10BFF0001C30C2F30741C2F30720D2B2B3F5007F71
:10C000000FD312238DF800304FEA19638DF80130F9
:10C010008DF802108DF8042064238DF803000522AA
:10C020000AE002238DF800308DF801108DF802002F
:10C030008DF803206423042269464046FFF754FF2D
:10C04000C8B14FF47A73224651464046FFF74CFF81
:10C0500088B101214046FFF7C3FD6421404600E05E
:10C0600003E0FFF757FF00B101274046FFF76CFFE1
:10C070003846BDE8FC8701214046FFF7B1FDF4E7F3
:10C080002DE9F8431E46174688460446089DFFF7EB
:10C0900095FE33463A46414620460095FFF788FF15
:10C0A00000212173BDE8F883F8B5044640684FF4D9
:10C0B0008273984217D1A0684FF48065B0F5004FA5
:10C0C00001D0A8420FD12068066826F0400606601D
:10C0D0006068984207D1A068A84204D100920B463C
:10C0E0000022012103E000920B460022802120461D
:10C0F00000F018F8002804D0606D40F02000606562
:10C100000320F8BD38B50B4600920446002280217A
:10C1100000F008F8002804D0606D40F02000606551
:10C12000032038BD2DE9F0411D4617460E46044652
:10C13000DDF8188008E0681C06D0FEF78BFCA0EB49
:10C140000800A8420BD255B12068806836EA00008A
:10C1500030D00020B842EED10020BDE8F081206848
:10C16000416821F0E00141606068B0F5827F0BD149
:10C17000A068B0F5004F02D0B0F5806F04D1206800
:10C18000016821F040010160A06AB0F5005F09D1AB
:10C190002068016821F4005101602068016841F4C1
:10C1A00000510160012084F85100002084F8500003
:10C1B0000320D2E70120CDE77047FEF751BC30B530
:10C1C0008FB028216846FCF741FC14210AA8FCF72F
:10C1D0003DFC01210804CDE9001000240294022551
:10C1E0000491CDE907504FF4E01009906846FEF73E
:10C1F000ADFD08B172B6FEE70F20CDE90A054FF498
:10C200008060CDE90C4002210AA80E94FEF7B2FC32
:10C21000002801D072B6FEE70FB030BD0D480168AE
:10C2200041F00101016041680B4A11404160016821
:10C230000A4A11400160016821F4802101604168CF
:10C2400021F4FE0141604FF41F0181600449C003E5
:10C2500008607047001002400000FFF8FFFFF6FE84
:10C2600008ED00E02DE9F041044600680169E2684C
:10C2700021F44051114301612169A06808436169BB
:10C2800008432168CA6841F20C639A430243CA60BA
:10C2900020684169A26921F44071114341611E493E
:10C2A000206864253226884202D1FEF709FD01E0AC
:10C2B000FEF7F6FC00EBC00101EB001160686FF0C7
:10C2C00018078000B1FBF0F2B2FBF5F2B1FBF0F31E
:10C2D0007A4303EB8202B1FBF0F306EB0212B2FBEE
:10C2E000F5F2B3FBF5F302F0F00202EB0312B1FB3F
:10C2F000F0F3B1FBF0F0B0FBF5F0784303EB800016
:10C3000006EB0010B0FBF5F0216800F00F001044C0
:10C310008860BDE8F081000000380140014800F06D
:10C3200084B90000D400002006490A68C2F3C01294
:10C33000002AFAD048600868C0F380100028FAD0BC
:10C34000704700000044004000B5030006D002E042
:10C35000FFF7EAFF5B1C18780028F9D100BDFEE763
:10C36000490050EAC12018BF04204A0D18BF40F010
:10C37000010040F2FF72B2EB515F08BF40F00200D3
:10C38000012808BF052070470907090E002804DBB3
:10C3900000F1E02080F80014704700F00F0000F179
:10C3A000E02080F8141D704730380A2801D201209F
:10C3B00070470020704770B5044690F848040D4659
:10C3C00009282CD00846FCF7BBFA401C00F029F8DD
:10C3D00094F84814002804EB8101C1F80C041DD026
:10C3E0002846FCF7ADFA024694F84804294604EBC7
:10C3F0008000D0F80C04FCF750FB2846FCF7A0FAAC
:10C4000094F84814002204EB8101D1F80C140A546A
:10C4100094F84804401C84F84804012070BD0020B2
:10C4200070BDFBF72BBF10B50446B0F8020440B155
:10C43000FEF710FBD4F80414401A642801D9012037
:10C4400010BD002010BD0FB42DE9F84F054600784F
:10C45000984691464FF0FF3480B11146284600F0CF
:10C46000A2F858B1B8F1000002D00E99FCF7CCFA4E
:10C4700000268DF8006010AF34461FE02046BDE86E
:10C48000F80F5DF814FB57F804BB5846FCF758FA50
:10C49000401CFFF7C6FF05EB840ACAF8340440B11C
:10C4A0005946FCF729FA5846FCF74AFADAF83414E8
:10C4B0000E540F98052804DA641CE4B20F988442E5
:10C4C000E1DB0B98FCF73CFA82B228460B9900F0AE
:10C4D00001F9FEF7BFFA04461EE00120FEF7A6F9B7
:10C4E0002846FFF7A0FFB8B1284600F0BBF80F9828
:10C4F0006A46C1B2284600F0CCF8010009D0B8F174
:10C50000000002D00E9AFCF7C8FA284600F01CF88A
:10C5100007E0284600F018F8FEF79CFA011B494591
:10C52000DBD3002407E005EB8400D0F8340400F0EE
:10C5300016F8641CE4B20F988442F4DB85F8516469
:10C540009DF8000040B29AE710B504464FF48061B0
:10C55000401CFCF759FA0020A4F8020410BD002882
:10C5600001D0FBF7BABE70472DE9F04104460078D0
:10C570001E4615460F46012813D040F25C41204666
:10C58000FCF764FA0722394604F24940FCF785FAC1
:10C5900004F2544160C1E86840F02000E8600120E6
:10C5A0002070BDE8F0812DE9F041044690F8510477
:10C5B0000E46012788B1FEF74DFA054605E0012039
:10C5C000FEF734F994F8510438B1FEF743FA401BF2
:10C5D000B042F4D30020BDE8F08184F8517401200A
:10C5E000F9E710B50446007800281DD0FEF732FAAE
:10C5F000D4F80814401A642816D3FEF72BFAC4F8AE
:10C6000008040A212046FFF7CEFF00280CD0204660
:10C61000FFF709FF28B1204600F024F82046FFF775
:10C6200093FF002084F8510410BD10B50446D0F8E3
:10C6300054040168C1F34011002912D04068B4F8D5
:10C64000021440F2FF32C0B2914206D2621C8854FA
:10C65000B4F80204401CA4F80204FEF7FBF9C4F885
:10C66000040410BD70B505465FF0000405EB8400BE
:10C67000D0F80C1400290BD0681CFCF72BF918B16A
:10C68000D5F8581401B18847641CE4B20A2CEDD3E4
:10C6900070BD2DE9F0410746002016460D4610708A
:10C6A000052902D30525002401E000240EE007EB54
:10C6B0008400D0F8341459B1781CFCF70BF904F15C
:10C6C000010410B13470BDE8F081E4B2AC42EED3A5
:10C6D0000020F8E72DE9F04116460F4605460024F4
:10C6E0000FE00120FEF7A2F8D5F854040068C0F36B
:10C6F000C0100028F5D0D5F85414385D4860641C8B
:10C70000A4B2B442F0D302E00120FEF78FF8D5F8CE
:10C7100054040068C0F380100028F5D0BDE8F08113
:10C72000014902A000F0C8B82209002043414C4C46
:10C730004241434B204750525320434F4E4E4543B6
:10C740005445442C2049503A2025730D0A0000001E
:10C7500001A000F0B1B8000043414C4C4241434BB2
:10C76000204750525320444953434F4E4E45435463
:10C7700045440D0A0000000001A000F09DB8000033
:10C7800043414C4C4241434B2047505253204D5162
:10C79000545420444953434F4E4E4543540D0A00D0
:10C7A0000A46014601A000F087B8000043414C4C06
:10C7B0004241434B2047505253204D515454205432
:10C7C0004F5049433A2025732020202D2D2D2D2018
:10C7D00020204D4553534147453A2025730D0A000B
:10C7E00001A000F069B8000043414C4C4241434B6A
:10C7F000204E4554574F524B2052454749535445BC
:10C80000520D0A0001A000F057B8000043414C4C03
:10C810004241434B204E4554574F524B20554E52A8
:10C82000454749535445520D0A00000001A000F04D
:10C8300043B8000043414C4C4241434B2053494DC7
:10C8400043415244204E4F54204445544543540DD7
:10C850000A00000001A000F02FB8000043414C4C3A
:10C860004241434B2053494D434152442050494E8D
:10C870000D0A000001A000F01FB8000043414C4C1D
:10C880004241434B2053494D434152442050554B64
:10C890000D0A000001A000F00FB8000043414C4C0D
:10C8A0004241434B2053494D43415244205245415C
:10C8B00044590D0A000000000FB400B5ADF5017D2C
:10C8C000829A002A08D083AB4FF400716846FBF7C8
:10C8D0002BFD6846FFF738FD0DF5017D5DF814FB73
:10C8E0002DE9FC41054647A1FBF7F4FF494C18B17F
:10C8F000207920F0010019E047A12846FBF7EAFF64
:10C90000D0B14FF0FF31ADF80410ADF800106B4618
:10C9100001AA44A1FBF762FEBDF8000001282079BE
:10C9200007D020F0040000BF40F008002071BDE8EF
:10C93000FC8140F00400F7E73FA12846FBF7CAFF5F
:10C94000002710B184F87278F1E73EA12846FBF782
:10C95000C1FF012610B184F87368E8E73EA12846BC
:10C96000FBF7B8FF10B184F8F978E0E73EA128465C
:10C97000FBF7B0FF0500DAD03F4840218046FCF7C6
:10C9800065F83D48402140380746FCF75FF83BA179
:10C990002846FBF78FFF39A10020FBF78BFF05002E
:10C9A000C5D036A10020FBF785FF0028BFD0401B73
:10C9B000C2B2402A01D9402201E0022A01D9521E06
:10C9C000D2B229463846FCF768F82CA10020FBF7C4
:10C9D00071FF0500ABD029A10020FBF76BFF0028F9
:10C9E000A5D0401BC2B2402A01D9402201E0022A50
:10C9F00001D9521ED2B229464046FCF74EF884F8BF
:10CA0000F86894E7504F57455220444F574E0D0A4F
:10CA100000000000CC0000200D0A2B435245473A8D
:10CA2000200000000D0A2B435245473A2025686438
:10CA30002C256864000000000D0A434C4F53454408
:10CA40000D0A00000D0A2B43495052584745543AED
:10CA500020310D0A000000000D0A2B534D535441A4
:10CA600054453A20300D0A000D0A2B534D505542C3
:10CA70004C4953483A20000084090020220000005D
:10CA800030B58FB042F2107000F09EFD90B11AA345
:10CA90001CA2022120208DE80F0004AB4FF47A7213
:10CAA0001AA11D48FFF7CFFC1B4C0025083C0128AC
:10CAB0000CD103E019A0FFF7FFFE0BE00DAB0CAAB1
:10CAC00021A104A8FBF78AFD022806D013A0FFF7D6
:10CAD000F3FE657000200FB030BDBDF93000632853
:10CAE00008D0642148431F2190FBF1F0E07065708D
:10CAF000E078F0E7E570FAE70D0A4552524F520D23
:10CB00000A0000000D0A2B4353513A0041542B43B5
:10CB100053510D0A00000000D40000205B47534D24
:10CB20005D206765745369676E616C5175616C69EE
:10CB300074795F305F746F5F31303028292066610F
:10CB4000696C6564210D0A000D0A2B4353513A208C
:10CB50002568642C2568640D0A0000002DE9FF415A
:10CB600038A0FFF7A9FE42F2107000F02DFD00285A
:10CB70002CD03CA03EA1CDE9021000240226424860
:10CB8000CDE90046234641F288323BA18046FFF7BB
:10CB90005AFC4FF4FA673846FDF748FE31A034A13D
:10CBA000CDE90210CDE900460023384A38A14046BD
:10CBB000FFF749FC344D083D01280BD085F8544857
:10CBC00085F8554836A0FFF777FE1FE034A0FFF741
:10CBD00073FE1DE03846FDF729FE22A04FF47C725B
:10CBE0000092039036A1CDE90161394B4FF47A727E
:10CBF0001E4638A14046FFF726FC01280CD028A08D
:10CC0000FFF75AFE85F8544885F8554800F056FF5E
:10CC1000002004B0BDE8F081324810210446FBF743
:10CC2000F3FE224630A13046FBF7D8FC012085F800
:10CC3000540885F8550832A0FFF73EFE00F03EFF8D
:10CC40000120E6E75B47534D5D20677072735F63B9
:10CC50006F6E6E656374282920626567696E0D0AC0
:10CC6000000000000D0A4552524F520D0A0000000C
:10CC70000D0A4F4B0D0A000041542B5341504252B4
:10CC80003D302C310D0A0000D4000020905F0100DF
:10CC900041542B53415042523D312C310D0A00007A
:10CCA0005B47534D5D20677072735F636F6E6E6597
:10CCB00063742829206661696C6564210D0A00008F
:10CCC0000D0A2B53415042523A20312C312C000096
:10CCD0003005002041542B53415042523D322C31FB
:10CCE0000D0A0000220900200D0A2B534150425228
:10CCF0003A20312C312C22255B5E220D0A5D00008A
:10CD00005B47534D5D20677072735F636F6E6E6536
:10CD10006374282920646F6E650D0A002DE9FF47B2
:10CD2000374C0746904694F854084FF0FF35E8B169
:10CD300042F2107000F048FC00281FD0A4F8705890
:10CD40000025C4F868582FA031A1CDE902100226B1
:10CD5000CDE9005604F108002B4640F6B8322EA16A
:10CD60008246FFF770FB01283ED10DE0394630A026
:10CD7000FFF7A2FD284604B0BDE8F08739463AA087
:10CD8000FFF79AFD0020F6E749483A4641A181465F
:10CD9000FBF7E4FA1BA01EA1CDE90210CDE9005675
:10CDA00000234FF47A7249465046FFF74CFB0128A6
:10CDB0001AD14FF47C7213A13EA0CDE90026CDE933
:10CDC00002014B4642463FA15046FFF73CFB01287B
:10CDD00003D041A0FFF770FD06E0474B47A103F1E8
:10CDE00008024846FBF7FAFBB4F9702839464AA016
:10CDF000FFF762FD00F062FEB4F97008BBE70000C7
:10CE0000CC0000200D0A4552524F520D0A0000007E
:10CE10000D0A4F4B0D0A000041542B4854545050FA
:10CE20004152413D22434944222C310D0A00000069
:10CE30005B47534D5D20677072735F687474704711
:10CE40006574282573292067736D2E677072732EA1
:10CE5000636F6E6E6563746564206661696C65649A
:10CE60002031210D0A0000005B47534D5D206770A3
:10CE700072735F687474704765742825732920671E
:10CE8000736D5F6C6F636B206661696C65643221E2
:10CE90000D0A000041542B48545450504152413D1A
:10CEA0002255524C222C222573220D0A000000002C
:10CEB000300500200D0A2B48545450414354494F2B
:10CEC0004E3A000041542B48545450414354494F6A
:10CED0004E3D300D0A0000005B47534D5D206770EA
:10CEE00072735F687474704765742074696D656FE0
:10CEF0007574212E0A000000340900200D0A2B4809
:10CF0000545450414354494F4E3A20302C256864C4
:10CF10002C25640D0A0000005B47534D5D206770AF
:10CF200072735F6874747047657428257329206470
:10CF30006F6E652E20616E737765723A2025640DE1
:10CF40000A0000002DE9FF41204D95F85408002803
:10CF50002ED042F2107000F037FB002828D01CA021
:10CF60001EA1CDE9021000240226CDE900464FF4AF
:10CF70007A7705F1080023463A461AA18046FFF762
:10CF800062FA13A015A1CDE90210CDE900460023F5
:10CF90003A4618A14046FFF756FA01280CD019A0CE
:10CFA000FFF78AFC00F08AFD002004B0BDE8F081A4
:10CFB00014A0FFF781FCF7E71AA0C5F86C48FFF74B
:10CFC0007BFC00F07BFD0120EFE70000CC0000209F
:10CFD0000D0A4552524F520D0A0000000D0A4F4BE8
:10CFE0000D0A000041542B485454505445524D0DE5
:10CFF0000A00000041542B48545450494E49540DE6
:10D000000A0000005B47534D5D20677072735F68D4
:10D01000747470496E69742829206661696C65644E
:10D02000210D0A005B47534D5D20677072735F6886
:10D03000747470496E6974282920646F6E650D0AD6
:10D0400000000000F3B53D4C05468DB094F854083F
:10D05000002830D042F2107000F0B6FA00282CD030
:10D060004FF47C7704F2644039460646FBF7EEFC49
:10D07000BDF838104FF47470814201D3ADF8380018
:10D08000BDF838302EA104A8D4F86C28FBF766F957
:10D0900030A0039032A102220097CDE90121274858
:10D0A00033464FF47A7204A90830FFF7CCF901280F
:10D0B00007D02FA026E037A000E03FA0FFF7FCFB41
:10D0C00024E00EAA45A13046FBF788FA012801D0DA
:10D0D00047A017E0BDF83810D4F86C080844C4F82D
:10D0E0006C08D4F86818884201D3C4F86C180A2177
:10D0F0004848FBF7E5FB20B1411C0020BDF8382073
:10D100000FE045A0FFF7D8FB00F0D8FC00200FB0DF
:10D11000F0BD00BF271811F8013B401C87F86434AC
:10D1200080B29042F6D31DB131462846FBF727FC6A
:10D1300000F0C4FCBDF83800E9E70000CC00002096
:10D1400041542B48545450524541443D25642C25AC
:10D15000640D0A000D0A4552524F520D0A0000009C
:10D160000D0A2B48545450524541443A20000000C7
:10D170005B47534D5D20677072735F6874747052C3
:10D180006561642829206661696C65642120330D1E
:10D190000A0000005B47534D5D20677072735F6843
:10D1A000747470526561642829206661696C6564D5
:10D1B0002120310D0A0000005B47534D5D20677050
:10D1C00072735F68747470526561642829206661A7
:10D1D000696C65642120320D0A0000000D0A2B489D
:10D1E000545450524541443A202568640D0A0000C9
:10D1F0005B47534D5D20677072735F687474705243
:10D200006561642829206661696C65642120340D9C
:10D210000A0000003A0500205B47534D5D2067700F
:10D2200072735F6874747052656164282920666146
:10D23000696C65642120350D0A0000002DE9FF4767
:10D24000040018D042F2107000F0BEF9A8B120A07E
:10D2500022A1CDE90210002602252A48CDE9006569
:10D260004FF47A78334642461EA18146FFF7EBF829
:10D2700001281BD106E0014600E0214622A0FFF76D
:10D280001BFB19E03048224628A10746FBF766F849
:10D290000FA012A1CDE90210CDE90065002342469E
:10D2A00039464846FFF7CFF8012809D0214616A095
:10D2B000FFF702FB00F002FC002004B0BDE8F0879D
:10D2C000214622A0FFF7F8FA00F0F8FB0120F4E76E
:10D2D0000D0A4552524F520D0A0000000D0A4F4BE5
:10D2E0000D0A000041542B53415042523D332C3122
:10D2F0002C22436F6E74797065222C224750525352
:10D30000220D0A00D40000205B47534D5D2067705A
:10D3100072735F73657441704E616D652825732962
:10D32000206661696C6564210D0A000041542B532D
:10D33000415042523D332C312C2241504E222C225E
:10D340002573220D0A000000300500205B47534D75
:10D350005D20677072735F73657441704E616D65B7
:10D360002825732920646F6E650D0A0070B5254C61
:10D370002078012845D024A0FFF79EFA01229103CE
:10D380002648FDF761FB40F6B830FDF74FFA40F64E
:10D39000FC012046FBF75AFB04F10800204B214A10
:10D3A00021A10546FFF7E0F821A12846FFF703F881
:10D3B000002826D022A12846FEF7FDFF002820D015
:10D3C00022A12846FEF7F7FF00281AD022A12846FE
:10D3D000FEF7F1FF002814D024A12846FEF7EBFF4A
:10D3E00000280ED025A12846FEF7E5FF002808D02A
:10D3F0004FF47A70FDF71AFA24A0FFF75DFA0120C6
:10D40000207070BDCC0000205B47534D5D20696EDD
:10D41000697420626567696E0D0A0000000C0140A6
:10D42000E1C800080038014047534D2041544300F3
:10D43000504F57455220444F574E0D0A00000000F0
:10D440000D0A2B435245473A000000000D0A434C99
:10D450004F5345440D0A00000D0A2B4349505258C2
:10D460004745543A20310D0A000000000D0A2B53A5
:10D470004D53544154453A20000000000D0A2B53EF
:10D480004D5055424C4953483A2000005B47534D9C
:10D490005D20696E697420646F6E650D0A0000007E
:10D4A0002DE9FF41002428A001250094CDE9015079
:10D4B000294841F288362346324625A18046FEF7A8
:10D4C000C2FF21A00094CDE901504FF47A770023E8
:10D4D0003A4622A14046FEF7B6FF1BA00094CDE9D4
:10D4E000015000233A461FA14046FEF7ACFF16A0AC
:10D4F0000094CDE9015000233A461DA14046FEF7B5
:10D50000A2FF1FA0039021A102220094CDE90121D6
:10D510000023324620A14046FEF795FF0AA0009462
:10D52000CDE9015000233A461FA14046FEF78BFF8C
:10D5300005A00094CDE9015000233A461EA14046C3
:10D54000FEF781FFBDE8FF810D0A4F4B0D0A000079
:10D5500041542646300D0A00D40000204154453184
:10D560000D0A000041542B435245473D310D0A003E
:10D5700041542B46534845583D300D0A00000000E9
:10D580000D0A4552524F520D0A0000000D0A534831
:10D590005554204F4B0D0A0041542B4349505348DA
:10D5A00055540D0A0000000041542B434950484592
:10D5B00041443D300D0A000041542B43495052581C
:10D5C0004745543D310D0A0070B50646FDF742FA55
:10D5D0000446094D06E0687800284FF0010008D0A5
:10D5E000FDF724F9FDF736FA001BB042F3D3002013
:10D5F00070BD6870012070BDCC0000202DE9F04F97
:10D600009B4899B08346FEF7ECFFFDF723FA994E4D
:10D61000974C4FF47A7A71680227401A0025083C2B
:10D620004FF040094FF0010850457DD9FDF712FA3F
:10D6300070603078401CC0B230702179490621D525
:10D640006178F9B90A281DD335708BA08DA1CDE979
:10D650000210CDE90057002352468CA15846FEF730
:10D66000F2FE01280DD0A078401CC0B2A0700A289C
:10D6700008D3207920F001002071012000F04EF93C
:10D6800000B1A5702079800615D530780A2812D30C
:10D690003570A57078A07BA1CDE90210CDE90057C7
:10D6A0000023524679A15846FEF7CDFE012802D14B
:10D6B000002000F033F92079C10775D0C00612D4DC
:10D6C0006DA174A2CDE90221CDE9009704AB5246C9
:10D6D00073A15846FEF7B7FE012812D0FFF7A6F84F
:10D6E0002079C00760D0207901073ED520F00800DE
:10D6F0002071410731D540F002002071FFF770F82A
:10D7000030E014AA69A104A8FAF768FF0128E7D15C
:10D710006AA114A8FBF7ECF928B9FFF7BBF8207948
:10D7200040F01000207100E02FE066A114A8FBF784
:10D73000DFF928B9FFF78EF8207940F0100020714A
:10D7400062A114A8FBF7D4F90028C9D1FFF792F819
:10D75000207940F010002071C2E720F00200207113
:10D76000FFF750F82079C0071ED094F8F808012878
:10D7700006D1584984F8F858A1F14000FFF710F895
:10D7800094F8F908012801D030B10DE094F8FA08B6
:10D7900050B984F8FA8807E094F8FA08012803D110
:10D7A00084F8FA58FEF7E8FFFDF754F9B168401A1B
:10D7B00042F2107188424AD92079C00747D0FDF75C
:10D7C00049F9B0602079C00741D0607870BBFFF79D
:10D7D00057F92079400707D40095002352463EA10F
:10D7E00058460195FEF72FFE2079C0072FD06078AC
:10D7F000E0B994F85408C8B11FA13AA2CDE90221BA
:10D80000CDE9009704AB52463AA15846FEF71BFEFD
:10D81000012807D12F4A3BA1623A04A8FAF7DEFE9D
:10D82000012804D094F8550801280AD00FE094F894
:10D83000550860B984F8548884F85588FEF770FF5D
:10D8400005E084F8545884F85558FEF781FFFDF739
:10D8500001F9F168401A4EF66021884205D9207915
:10D86000C00702D0FDF7F6F8F06019B0BDE8F08F00
:10D87000D4000020100000200D0A4552524F520DD6
:10D880000A0000000D0A4F4B0D0A000041540D0A1A
:10D89000000000000D0A2B4350494E3A00000000E2
:10D8A00041542B4350494E3F0D0A00000D0A2B43B3
:10D8B00050494E3A20255B5E0D0A5D0052454144B9
:10D8C0005900000053494D2050494E0053494D2006
:10D8D00050554B008409002041542B435245473F8B
:10D8E0000D0A00000D0A2B53415042523A20312CB0
:10D8F0000000000041542B53415042523D322C3124
:10D900000D0A00000D0A2B53415042523A20312C8F
:10D91000312C22255B5E220D0A5D00002DE9FF5FA0
:10D92000054601464CA0FEF7C7FF514C0026207962
:10D9300025B120F0200040F0400003E020F040003E
:10D9400040F02000207100274AA14FF0010A009703
:10D95000CDE901A146484FF47A7B08303B465A4650
:10D9600046A10390FEF76FFD012800D10126DFF8E4
:10D9700014814FF480493DB1402026B141202071EF
:10D98000FFF78EFD3FE02EB155EA060041D0002D95
:10D9900048D026E02071002249464046FDF754F861
:10D9A00040F2DC50FCF742FF012249464046FDF7B9
:10D9B0004BF840F6B830FCF739FFB846002657461A
:10D9C0002CA1CDF80080CDE9017100235A462BA18E
:10D9D0000398FEF738FD01280BD0761CF6B2052E11
:10D9E000EED3294628A0FEF767FF002004B0BDE86B
:10D9F000F09F41F28830FCF719FFFFF751FD2079C5
:10DA000040F0010025E0294626A0FEF755FF012041
:10DA1000ECE7294623A0FEF74FFF207920F0010014
:10DA20002071F4E7002EDCD0002249464046FDF785
:10DA30000BF840F2DC50FCF7F9FE01224946404663
:10DA4000FDF702F840F6B830FCF7F0FE207920F040
:10DA500001002071D7E700005B47534D5D20706FD8
:10DA60007765722825642920626567696E0D0A0052
:10DA7000CC0000200D0A4F4B0D0A000041540D0A46
:10DA800000000000000C01405B47534D5D20706FAB
:10DA900077657228256429206661696C6564210DAB
:10DAA0000A0000005B47534D5D20706F7765722858
:10DAB00025642920646F6E650D0A0000014900206D
:10DAC00048707047CC00002070B50546014618A08C
:10DAD000FEF7F2FEFCF7BEFF044605EB45001F4EC5
